{
	"data": {
		"bytecode": {
			"linkReferences": {},
			"object": "608060405234801561001057600080fd5b506040516100c63803806100c68339818101604052602081101561003357600080fd5b50516000556080806100466000396000f3fe6080604052348015600f57600080fd5b506004361060285760003560e01c80637e1b4cb014602d575b600080fd5b60336045565b60408051918252519081900360200190f35b6000549056fea265627a7a72315820a7a84149fd112d53a76c20bb1e1222568bfb7f2911075bf16d9934b4fc4af74564736f6c63430005100032",
			"opcodes": "PUSH1 0x80 PUSH1 0x40 MSTORE CALLVALUE DUP1 ISZERO PUSH2 0x10 JUMPI PUSH1 0x0 DUP1 REVERT JUMPDEST POP PUSH1 0x40 MLOAD PUSH2 0xC6 CODESIZE SUB DUP1 PUSH2 0xC6 DUP4 CODECOPY DUP2 DUP2 ADD PUSH1 0x40 MSTORE PUSH1 0x20 DUP2 LT ISZERO PUSH2 0x33 JUMPI PUSH1 0x0 DUP1 REVERT JUMPDEST POP MLOAD PUSH1 0x0 SSTORE PUSH1 0x80 DUP1 PUSH2 0x46 PUSH1 0x0 CODECOPY PUSH1 0x0 RETURN INVALID PUSH1 0x80 PUSH1 0x40 MSTORE CALLVALUE DUP1 ISZERO PUSH1 0xF JUMPI PUSH1 0x0 DUP1 REVERT JUMPDEST POP PUSH1 0x4 CALLDATASIZE LT PUSH1 0x28 JUMPI PUSH1 0x0 CALLDATALOAD PUSH1 0xE0 SHR DUP1 PUSH4 0x7E1B4CB0 EQ PUSH1 0x2D JUMPI JUMPDEST PUSH1 0x0 DUP1 REVERT JUMPDEST PUSH1 0x33 PUSH1 0x45 JUMP JUMPDEST PUSH1 0x40 DUP1 MLOAD SWAP2 DUP3 MSTORE MLOAD SWAP1 DUP2 SWAP1 SUB PUSH1 0x20 ADD SWAP1 RETURN JUMPDEST PUSH1 0x0 SLOAD SWAP1 JUMP INVALID LOG2 PUSH6 0x627A7A723158 KECCAK256 0xA7 0xA8 COINBASE 0x49 REVERT GT 0x2D MSTORE8 0xA7 PUSH13 0x20BB1E1222568BFB7F2911075B CALL PUSH14 0x9934B4FC4AF74564736F6C634300 SDIV LT STOP ORIGIN "
		},
		"gasEstimates": {
			"creation": {
				"codeDepositCost": "25600",
				"executionCost": "infinite",
				"totalCost": "infinite"
			},
			"external": {
				"currentAnswer()": "976"
			}
		},
		"methodIdentifiers": {
			"currentAnswer()": "7e1b4cb0"
		}
	},
	"abi": [
		{
			"inputs": [
				{
					"internalType": "uint256",
					"name": "p",
					"type": "uint256"
				}
			],
			"payable": false,
			"stateMutability": "nonpayable",
			"type": "constructor"
		},
		{
			"constant": true,
			"inputs": [],
			"name": "currentAnswer",
			"outputs": [
				{
					"internalType": "int256",
					"name": "",
					"type": "int256"
				}
			],
			"payable": false,
			"stateMutability": "view",
			"type": "function"
		}
	]
}